{
  "_format": "hh-sol-artifact-1",
  "contractName": "PaymentManager",
  "sourceName": "contracts/PaymentManager.sol",
  "abi": [
    {
      "inputs": [],
      "stateMutability": "nonpayable",
      "type": "constructor"
    },
    {
      "anonymous": false,
      "inputs": [
        {
          "indexed": true,
          "internalType": "address",
          "name": "previous",
          "type": "address"
        },
        {
          "indexed": true,
          "internalType": "address",
          "name": "current",
          "type": "address"
        }
      ],
      "name": "AssetManagerChanged",
      "type": "event"
    },
    {
      "anonymous": false,
      "inputs": [
        {
          "indexed": true,
          "internalType": "address",
          "name": "technician",
          "type": "address"
        },
        {
          "indexed": false,
          "internalType": "uint256",
          "name": "amountWei",
          "type": "uint256"
        }
      ],
      "name": "TechnicianPaid",
      "type": "event"
    },
    {
      "anonymous": false,
      "inputs": [
        {
          "indexed": true,
          "internalType": "address",
          "name": "user",
          "type": "address"
        },
        {
          "indexed": false,
          "internalType": "uint256",
          "name": "amountWei",
          "type": "uint256"
        }
      ],
      "name": "UserReimbursed",
      "type": "event"
    },
    {
      "stateMutability": "payable",
      "type": "fallback"
    },
    {
      "inputs": [],
      "name": "assetManager",
      "outputs": [
        {
          "internalType": "address",
          "name": "",
          "type": "address"
        }
      ],
      "stateMutability": "view",
      "type": "function"
    },
    {
      "inputs": [],
      "name": "deposit",
      "outputs": [],
      "stateMutability": "payable",
      "type": "function"
    },
    {
      "inputs": [],
      "name": "getBalance",
      "outputs": [
        {
          "internalType": "uint256",
          "name": "",
          "type": "uint256"
        }
      ],
      "stateMutability": "view",
      "type": "function"
    },
    {
      "inputs": [],
      "name": "owner",
      "outputs": [
        {
          "internalType": "address",
          "name": "",
          "type": "address"
        }
      ],
      "stateMutability": "view",
      "type": "function"
    },
    {
      "inputs": [
        {
          "internalType": "address",
          "name": "technician",
          "type": "address"
        },
        {
          "internalType": "uint256",
          "name": "amountInWei",
          "type": "uint256"
        }
      ],
      "name": "payTechnician",
      "outputs": [],
      "stateMutability": "nonpayable",
      "type": "function"
    },
    {
      "inputs": [
        {
          "internalType": "address",
          "name": "user",
          "type": "address"
        },
        {
          "internalType": "uint256",
          "name": "amountInWei",
          "type": "uint256"
        }
      ],
      "name": "reimburseUser",
      "outputs": [],
      "stateMutability": "nonpayable",
      "type": "function"
    },
    {
      "inputs": [
        {
          "internalType": "address",
          "name": "newassetManager",
          "type": "address"
        }
      ],
      "name": "setAssetManager",
      "outputs": [],
      "stateMutability": "nonpayable",
      "type": "function"
    },
    {
      "inputs": [
        {
          "internalType": "uint256",
          "name": "amountInWei",
          "type": "uint256"
        }
      ],
      "name": "withdrawPartial",
      "outputs": [],
      "stateMutability": "nonpayable",
      "type": "function"
    },
    {
      "stateMutability": "payable",
      "type": "receive"
    }
  ],
  "bytecode": "0x60a0806040523460365733608052610570908161003c82396080518181816084015281816102ae015281816102fc01526103960152f35b600080fdfe6080806040526004361015610011575b005b60003560e01c90816312065fe01461045c575080631211540c1461038057806343060237146102dd5780638da5cb5b1461029857806394217ad11461026f578063944c5a6114610180578063a179fe28146100b75763d0e30db01461007257005b60003660031901126100b25761000f337f00000000000000000000000000000000000000000000000000000000000000006001600160a01b03161461048b565b600080fd5b346100b25760403660031901126100b2576100d0610475565b602435906100e960018060a01b036000541633146104fb565b6001600160a01b03166100fd8115156104c3565b8147106101305760008080938193828215610127575bf11561011b57005b6040513d6000823e3d90fd5b506108fc610113565b60405162461bcd60e51b815260206004820152602260248201527f4e6f7420656e6f7567682066756e647320666f72207265696d62757273656d656044820152611b9d60f21b6064820152608490fd5b346100b25760403660031901126100b257610199610475565b602435906101b260018060a01b036000541633146104fb565b6001600160a01b0316906101c78215156104c3565b80471061021f57600081838115610215575b600092839283928392f11561011b5760207ff8fc652c453ff5f8f3041e7f9df3b6023cf0145361ac7e6bf0e2c01330fd6dea91604051908152a2005b6108fc92506101d9565b60405162461bcd60e51b815260206004820152602260248201527f4e6f7420656e6f7567682066756e647320696e205061796d656e744d616e616760448201526132b960f11b6064820152608490fd5b346100b25760003660031901126100b2576000546040516001600160a01b039091168152602090f35b346100b25760003660031901126100b2576040517f00000000000000000000000000000000000000000000000000000000000000006001600160a01b03168152602090f35b346100b25760203660031901126100b2576102f6610475565b61032a337f00000000000000000000000000000000000000000000000000000000000000006001600160a01b03161461048b565b6001600160a01b031661033e8115156104c3565b6000548160018060a01b0382167f4a4c595a0a897525da73e6b86a1554b2bce3b5811b90be33878d939c8ba14141600080a36001600160a01b03191617600055005b346100b25760203660031901126100b2576004357f00000000000000000000000000000000000000000000000000000000000000006001600160a01b03166103c933821461048b565b8115610420574782116103e6576000808093819382f11561011b57005b60405162461bcd60e51b81526020600482015260126024820152714e6f7420656e6f7567682062616c616e636560701b6044820152606490fd5b60405162461bcd60e51b815260206004820152601460248201527343616e6e6f74207769746864726177207a65726f60601b6044820152606490fd5b346100b25760003660031901126100b257602090478152f35b600435906001600160a01b03821682036100b257565b1561049257565b60405162461bcd60e51b81526020600482015260096024820152682737ba1037bbb732b960b91b6044820152606490fd5b156104ca57565b60405162461bcd60e51b81526020600482015260096024820152683d32b9379030b2323960b91b6044820152606490fd5b1561050257565b60405162461bcd60e51b815260206004820152601060248201526f2737ba1020b9b9b2ba26b0b730b3b2b960811b6044820152606490fdfea2646970667358221220a4f2707869db049a50c0468f41888b94176476cc788be36c21b26e07ccb9189864736f6c634300081c0033",
  "linkReferences": {},
  "deployedLinkReferences": {}
}